:060000000000FEEF1FF0FE
:100600000000FFFF000E046E000E036E1FEF03F0EC
:10061000FFFF000E066E000E056EFFFF054A062A5C
:10062000C60E055C020E0658D8A019EF03F01CEFA9
:1006300003F0FFFF0DEF03F0FFFF034A042AFFFF63
:100640000150035C02500458D8A029EF03F02CEFAE
:1006500003F0FFFF08EF03F0FFFF1200FFFFFFFFB3
:10066000929CFFFF808C000E026E190E016E01EC51
:1006700003F0809C000E026E190E016E01EC03F077
:1006800031EF03F0FEEF1FF000012FEF03F0FFFF4B
:043FFC0044EF03F09B
:020000040030CA
:020002000F0EDF
:0200060081FF78
:00000001FF
