:04000000FEEF3FF0E0
:100800000000948E949C040EB06EE10EAF6EB8861C
:10081000AC84AC8AAB8EAB882B0E386E9CEC04F0AB
:10082000190E386E9CEC04F07E0E386E9CEC04F0D1
:100830004D6A9EAA1EEF04F020EF04F019EF04F0B9
:100840004D50390FD96EDA6AAECFDFFF4D2A090E4F
:100850004D642DEF04F02FEF04F019EF04F0436A1C
:10086000600E386E9CEC04F0390E386E9CEC04F08F
:10087000010E386E9CEC04F03CEF04F0FEEF3FF00C
:10088000C60EF66E080EF76E000EF86E00EE60F003
:1008900010EE3BF00900F5CFEEFFE550E150FAE134
:1008A000010EF66E090EF76E000EF86E00EE01F006
:1008B00010EE36F00900F5CFEEFFE550E150FAE119
:1008C000000101EF04F00A0D5472616E736D6974DA
:1008D000746564204368617261637465727320613A
:1008E00072653A000A0D53656E64203130206368EA
:1008F000617261637465727320746F2075430A0DB1
:10090000000A0D5278205478207465737420636F48
:100910006D706C6574650A0D000A0D555341525493
:10092000205465737420436F6465000A0D5052456E
:0709300043204C6F6E6900CB
:10093800A5EF04F03850D96EDA6ADF50B1EC04F054
:10094800382A3850D96EDA6ADF50D8A4AEEF04F0EE
:10095800B0EF04F09EEF04F01200376EACA2B7EFD0
:1009680004F0B9EF04F0B2EF04F037C0ADFF1200A5
:047FFC0040EF04F05E
:00000001FF
