:04000000FEEF3FF0E0
:100600000000000E046E000E036E1DEF03F0000EDE
:10061000066E000E056E054A062A06BE19EF03F0A7
:10062000FB0E055C040E0658D8A019EF03F01BEF73
:1006300003F00BEF03F0034A042A0150035C02505D
:100640000458D8A026EF03F028EF03F007EF03F0DB
:100650001200939881888198030E026EE80E016E55
:1006600001EC03F08188030E026EE80E016E01ECCE
:1006700003F02BEF03F0FEEF3FF0000129EF03F052
:047FFC003DEF03F062
:020000040030CA
:04000000FF021F1EBE
:0200060081FF78
:00000001FF
