:060000000000FEEF1FF0FE
:100600000000FFFF20EE1FF010EE0BF00D0EDBCF11
:10061000E3FFE806FCE220EE2DF010EE19F0050EE7
:10062000DBCFE3FFE806FCE20F0EC16E956A966A27
:100630008CEC03F0000E026E320E016E36EC03F00D
:100640000B0E086E64EC03F0000E026E960E016E47
:1006500036EC03F0C00EC6EC03F0190E086E64EC25
:1006600003F0FFFF31EF03F0FEEF1FF0FFFF000E7E
:10067000046E000E036E54EF03F0FFFF000E066ED3
:10068000000E056EFFFF054A062AC60E055C020E27
:100690000658D8A04EEF03F051EF03F0FFFF42EFF2
:1006A00003F0FFFF034A042AFFFF0150035C0250DE
:1006B0000458D8A05EEF03F061EF03F0FFFF3DEFB9
:1006C00003F0FFFF1200FFFFFFFF000E0A6E000E97
:1006D000096E7BEF03F0FFFF08500924D96EDA6A38
:1006E000DF50D6EC03F0000E026E0F0E016E36ECFA
:1006F00003F0094A0A2AFFFF08500924D96EDA6A72
:10070000DF50D8A486EF03F089EF03F0FFFF6BEF13
:1007100003F0FFFF1200FFFFFFFF380EC6EC03F0EF
:10072000000E026E0F0E016E36EC03F0010EC6ECE9
:1007300003F0000E026E0F0E016E36EC03F00C0E8D
:10074000C6EC03F0000E026E0F0E016E36EC03F0E5
:10075000800EC6EC03F0000E026E0F0E016E36EC3A
:1007600003F01200FFFFCC0EF66E070EF76E000EC0
:10077000F86E00EE1FF010EE14F00900F5CFEEFF5A
:10078000E550E150FAE1000101EF03F0FFFF076ED1
:1007900007C083FF849084928484000E026E0F0E43
:1007A000016E36EC03F084941200FFFFFFFF076E2A
:1007B00007C083FF848084928484000E026E0F0E33
:1007C000016E36EC03F084941200FFFF4C4344208A
:1007D00050726163746963616C0053452049540031
:0207E000FFFF19
:043FFC00B3EF03F02C
:020000040030CA
:020002000F0EDF
:0200060081FF78
:00000001FF
