:04000000FEEF3FF0E0
:100600000000946A956A0E0EC16EBA0ECB6E0C0E87
:10061000BD6E070ECA6E050E836EBD98BD8A250E8F
:10062000BE6E070E026ED00E016E39EC03F0BD985F
:10063000BD9A1B0EBE6E070E026ED00E016E39EC17
:1006400003F0BD98BD8A700EBE6E070E026ED00E0E
:10065000016E39EC03F0BD98BD9A960EBE6E070E82
:10066000026ED00E016E39EC03F00DEF03F0FEEFD9
:100670003FF0000E046E000E036E52EF03F0000E0A
:10068000066E000E056E054A062AC60E055C020EB1
:100690000658D8A04EEF03F050EF03F043EF03F0FD
:1006A000034A042A0150035C02500458D8A05BEFAF
:1006B00003F05DEF03F03FEF03F01200000101EFE4
:0206C00003F045
:047FFC005EEF03F041
:00000001FF
